{
  "_format": "hh-sol-artifact-1",
  "contractName": "Crowfunding",
  "sourceName": "contracts/Crowfunding.sol",
  "abi": [
    {
      "inputs": [
        {
          "internalType": "uint256",
          "name": "",
          "type": "uint256"
        }
      ],
      "name": "campaigns",
      "outputs": [
        {
          "internalType": "address",
          "name": "owner",
          "type": "address"
        },
        {
          "internalType": "string",
          "name": "title",
          "type": "string"
        },
        {
          "internalType": "string",
          "name": "deiscription",
          "type": "string"
        },
        {
          "internalType": "uint256",
          "name": "target",
          "type": "uint256"
        },
        {
          "internalType": "uint256",
          "name": "deadline",
          "type": "uint256"
        },
        {
          "internalType": "uint256",
          "name": "amountCollected",
          "type": "uint256"
        }
      ],
      "stateMutability": "view",
      "type": "function"
    },
    {
      "inputs": [
        {
          "internalType": "address",
          "name": "_owner",
          "type": "address"
        },
        {
          "internalType": "string",
          "name": "_title",
          "type": "string"
        },
        {
          "internalType": "string",
          "name": "_description",
          "type": "string"
        },
        {
          "internalType": "uint256",
          "name": "_target",
          "type": "uint256"
        },
        {
          "internalType": "uint256",
          "name": "_deadline",
          "type": "uint256"
        }
      ],
      "name": "createCampaign",
      "outputs": [
        {
          "internalType": "uint256",
          "name": "",
          "type": "uint256"
        }
      ],
      "stateMutability": "nonpayable",
      "type": "function"
    },
    {
      "inputs": [
        {
          "internalType": "uint256",
          "name": "_id",
          "type": "uint256"
        }
      ],
      "name": "donateCampaign",
      "outputs": [],
      "stateMutability": "payable",
      "type": "function"
    },
    {
      "inputs": [],
      "name": "getCampaigns",
      "outputs": [
        {
          "components": [
            {
              "internalType": "address",
              "name": "owner",
              "type": "address"
            },
            {
              "internalType": "string",
              "name": "title",
              "type": "string"
            },
            {
              "internalType": "string",
              "name": "deiscription",
              "type": "string"
            },
            {
              "internalType": "uint256",
              "name": "target",
              "type": "uint256"
            },
            {
              "internalType": "uint256",
              "name": "deadline",
              "type": "uint256"
            },
            {
              "internalType": "uint256",
              "name": "amountCollected",
              "type": "uint256"
            },
            {
              "internalType": "address[]",
              "name": "donators",
              "type": "address[]"
            },
            {
              "internalType": "uint256[]",
              "name": "donations",
              "type": "uint256[]"
            }
          ],
          "internalType": "struct Crowfunding.Campaign[]",
          "name": "",
          "type": "tuple[]"
        }
      ],
      "stateMutability": "view",
      "type": "function"
    },
    {
      "inputs": [
        {
          "internalType": "uint256",
          "name": "_id",
          "type": "uint256"
        }
      ],
      "name": "getDonators",
      "outputs": [
        {
          "internalType": "address[]",
          "name": "",
          "type": "address[]"
        },
        {
          "internalType": "uint256[]",
          "name": "",
          "type": "uint256[]"
        }
      ],
      "stateMutability": "view",
      "type": "function"
    },
    {
      "inputs": [],
      "name": "numOfCampaigns",
      "outputs": [
        {
          "internalType": "uint256",
          "name": "",
          "type": "uint256"
        }
      ],
      "stateMutability": "view",
      "type": "function"
    }
  ],
  "bytecode": "0x608060405234801561001057600080fd5b5061175e806100206000396000f3fe6080604052600436106100555760003560e01c8063075843c31461005a5780630fa91fa914610097578063141961bc146100d55780633a69e1fc146101175780638ffff8b014610142578063a6b036331461015e575b600080fd5b34801561006657600080fd5b50610081600480360381019061007c9190610bff565b610189565b60405161008e9190610cc1565b60405180910390f35b3480156100a357600080fd5b506100be60048036038101906100b99190610cdc565b610290565b6040516100cc929190610e85565b60405180910390f35b3480156100e157600080fd5b506100fc60048036038101906100f79190610cdc565b6103a0565b60405161010e96959493929190610f4a565b60405180910390f35b34801561012357600080fd5b5061012c61050c565b6040516101399190610cc1565b60405180910390f35b61015c60048036038101906101579190610cdc565b610512565b005b34801561016a57600080fd5b50610173610672565b6040516101809190611268565b60405180910390f35b60008060008060015481526020019081526020016000209050428310156101e5576040517f08c379a00000000000000000000000000000000000000000000000000000000081526004016101dc906112d6565b60405180910390fd5b868160000160006101000a81548173ffffffffffffffffffffffffffffffffffffffff021916908373ffffffffffffffffffffffffffffffffffffffff160217905550858160010190816102399190611502565b508481600201908161024b9190611502565b508381600301819055508281600401819055506001600081548092919061027190611603565b919050555060018054610284919061164b565b91505095945050505050565b6060806000808481526020019081526020016000206006016000808581526020019081526020016000206007018180548060200260200160405190810160405280929190818152602001828054801561033e57602002820191906000526020600020905b8160009054906101000a900473ffffffffffffffffffffffffffffffffffffffff1673ffffffffffffffffffffffffffffffffffffffff16815260200190600101908083116102f4575b505050505091508080548060200260200160405190810160405280929190818152602001828054801561039057602002820191906000526020600020905b81548152602001906001019080831161037c575b5050505050905091509150915091565b60006020528060005260406000206000915090508060000160009054906101000a900473ffffffffffffffffffffffffffffffffffffffff16908060010180546103e990611325565b80601f016020809104026020016040519081016040528092919081815260200182805461041590611325565b80156104625780601f1061043757610100808354040283529160200191610462565b820191906000526020600020905b81548152906001019060200180831161044557829003601f168201915b50505050509080600201805461047790611325565b80601f01602080910402602001604051908101604052809291908181526020018280546104a390611325565b80156104f05780601f106104c5576101008083540402835291602001916104f0565b820191906000526020600020905b8154815290600101906020018083116104d357829003601f168201915b5050505050908060030154908060040154908060050154905086565b60015481565b60003490506000806000848152602001908152602001600020905080600601339080600181540180825580915050600190039060005260206000200160009091909190916101000a81548173ffffffffffffffffffffffffffffffffffffffff021916908373ffffffffffffffffffffffffffffffffffffffff1602179055508060070182908060018154018082558091505060019003906000526020600020016000909190919091505560008160000160009054906101000a900473ffffffffffffffffffffffffffffffffffffffff1673ffffffffffffffffffffffffffffffffffffffff1683604051610607906116b0565b60006040518083038185875af1925050503d8060008114610644576040519150601f19603f3d011682016040523d82523d6000602084013e610649565b606091505b50509050801561066c5782826005015461066391906116c5565b82600501819055505b50505050565b6060600060015467ffffffffffffffff81111561069257610691610a9e565b5b6040519080825280602002602001820160405280156106cb57816020015b6106b86109b6565b8152602001906001900390816106b05790505b50905060005b6001548110156109ae576000806000838152602001908152602001600020604051806101000160405290816000820160009054906101000a900473ffffffffffffffffffffffffffffffffffffffff1673ffffffffffffffffffffffffffffffffffffffff1673ffffffffffffffffffffffffffffffffffffffff16815260200160018201805461076190611325565b80601f016020809104026020016040519081016040528092919081815260200182805461078d90611325565b80156107da5780601f106107af576101008083540402835291602001916107da565b820191906000526020600020905b8154815290600101906020018083116107bd57829003601f168201915b505050505081526020016002820180546107f390611325565b80601f016020809104026020016040519081016040528092919081815260200182805461081f90611325565b801561086c5780601f106108415761010080835404028352916020019161086c565b820191906000526020600020905b81548152906001019060200180831161084f57829003601f168201915b505050505081526020016003820154815260200160048201548152602001600582015481526020016006820180548060200260200160405190810160405280929190818152602001828054801561091857602002820191906000526020600020905b8160009054906101000a900473ffffffffffffffffffffffffffffffffffffffff1673ffffffffffffffffffffffffffffffffffffffff16815260200190600101908083116108ce575b505050505081526020016007820180548060200260200160405190810160405280929190818152602001828054801561097057602002820191906000526020600020905b81548152602001906001019080831161095c575b50505050508152505090508083838151811061098f5761098e6116f9565b5b60200260200101819052505080806109a690611603565b9150506106d1565b508091505090565b604051806101000160405280600073ffffffffffffffffffffffffffffffffffffffff168152602001606081526020016060815260200160008152602001600081526020016000815260200160608152602001606081525090565b6000604051905090565b600080fd5b600080fd5b600073ffffffffffffffffffffffffffffffffffffffff82169050919050565b6000610a5082610a25565b9050919050565b610a6081610a45565b8114610a6b57600080fd5b50565b600081359050610a7d81610a57565b92915050565b600080fd5b600080fd5b6000601f19601f8301169050919050565b7f4e487b7100000000000000000000000000000000000000000000000000000000600052604160045260246000fd5b610ad682610a8d565b810181811067ffffffffffffffff82111715610af557610af4610a9e565b5b80604052505050565b6000610b08610a11565b9050610b148282610acd565b919050565b600067ffffffffffffffff821115610b3457610b33610a9e565b5b610b3d82610a8d565b9050602081019050919050565b82818337600083830152505050565b6000610b6c610b6784610b19565b610afe565b905082815260208101848484011115610b8857610b87610a88565b5b610b93848285610b4a565b509392505050565b600082601f830112610bb057610baf610a83565b5b8135610bc0848260208601610b59565b91505092915050565b6000819050919050565b610bdc81610bc9565b8114610be757600080fd5b50565b600081359050610bf981610bd3565b92915050565b600080600080600060a08688031215610c1b57610c1a610a1b565b5b6000610c2988828901610a6e565b955050602086013567ffffffffffffffff811115610c4a57610c49610a20565b5b610c5688828901610b9b565b945050604086013567ffffffffffffffff811115610c7757610c76610a20565b5b610c8388828901610b9b565b9350506060610c9488828901610bea565b9250506080610ca588828901610bea565b9150509295509295909350565b610cbb81610bc9565b82525050565b6000602082019050610cd66000830184610cb2565b92915050565b600060208284031215610cf257610cf1610a1b565b5b6000610d0084828501610bea565b91505092915050565b600081519050919050565b600082825260208201905092915050565b6000819050602082019050919050565b610d3e81610a45565b82525050565b6000610d508383610d35565b60208301905092915050565b6000602082019050919050565b6000610d7482610d09565b610d7e8185610d14565b9350610d8983610d25565b8060005b83811015610dba578151610da18882610d44565b9750610dac83610d5c565b925050600181019050610d8d565b5085935050505092915050565b600081519050919050565b600082825260208201905092915050565b6000819050602082019050919050565b610dfc81610bc9565b82525050565b6000610e0e8383610df3565b60208301905092915050565b6000602082019050919050565b6000610e3282610dc7565b610e3c8185610dd2565b9350610e4783610de3565b8060005b83811015610e78578151610e5f8882610e02565b9750610e6a83610e1a565b925050600181019050610e4b565b5085935050505092915050565b60006040820190508181036000830152610e9f8185610d69565b90508181036020830152610eb38184610e27565b90509392505050565b610ec581610a45565b82525050565b600081519050919050565b600082825260208201905092915050565b60005b83811015610f05578082015181840152602081019050610eea565b60008484015250505050565b6000610f1c82610ecb565b610f268185610ed6565b9350610f36818560208601610ee7565b610f3f81610a8d565b840191505092915050565b600060c082019050610f5f6000830189610ebc565b8181036020830152610f718188610f11565b90508181036040830152610f858187610f11565b9050610f946060830186610cb2565b610fa16080830185610cb2565b610fae60a0830184610cb2565b979650505050505050565b600081519050919050565b600082825260208201905092915050565b6000819050602082019050919050565b600082825260208201905092915050565b600061100182610ecb565b61100b8185610fe5565b935061101b818560208601610ee7565b61102481610a8d565b840191505092915050565b600082825260208201905092915050565b600061104b82610d09565b611055818561102f565b935061106083610d25565b8060005b838110156110915781516110788882610d44565b975061108383610d5c565b925050600181019050611064565b5085935050505092915050565b600082825260208201905092915050565b60006110ba82610dc7565b6110c4818561109e565b93506110cf83610de3565b8060005b838110156111005781516110e78882610e02565b97506110f283610e1a565b9250506001810190506110d3565b5085935050505092915050565b6000610100830160008301516111266000860182610d35565b506020830151848203602086015261113e8282610ff6565b915050604083015184820360408601526111588282610ff6565b915050606083015161116d6060860182610df3565b5060808301516111806080860182610df3565b5060a083015161119360a0860182610df3565b5060c083015184820360c08601526111ab8282611040565b91505060e083015184820360e08601526111c582826110af565b9150508091505092915050565b60006111de838361110d565b905092915050565b6000602082019050919050565b60006111fe82610fb9565b6112088185610fc4565b93508360208202850161121a85610fd5565b8060005b85811015611256578484038952815161123785826111d2565b9450611242836111e6565b925060208a0199505060018101905061121e565b50829750879550505050505092915050565b6000602082019050818103600083015261128281846111f3565b905092915050565b7f446561646c696e6520213e3d20626c6f636b2e74696d657374616d7000000000600082015250565b60006112c0601c83610ed6565b91506112cb8261128a565b602082019050919050565b600060208201905081810360008301526112ef816112b3565b9050919050565b7f4e487b7100000000000000000000000000000000000000000000000000000000600052602260045260246000fd5b6000600282049050600182168061133d57607f821691505b6020821081036113505761134f6112f6565b5b50919050565b60008190508160005260206000209050919050565b60006020601f8301049050919050565b600082821b905092915050565b6000600883026113b87fffffffffffffffffffffffffffffffffffffffffffffffffffffffffffffffff8261137b565b6113c2868361137b565b95508019841693508086168417925050509392505050565b6000819050919050565b60006113ff6113fa6113f584610bc9565b6113da565b610bc9565b9050919050565b6000819050919050565b611419836113e4565b61142d61142582611406565b848454611388565b825550505050565b600090565b611442611435565b61144d818484611410565b505050565b5b818110156114715761146660008261143a565b600181019050611453565b5050565b601f8211156114b65761148781611356565b6114908461136b565b8101602085101561149f578190505b6114b36114ab8561136b565b830182611452565b50505b505050565b600082821c905092915050565b60006114d9600019846008026114bb565b1980831691505092915050565b60006114f283836114c8565b9150826002028217905092915050565b61150b82610ecb565b67ffffffffffffffff81111561152457611523610a9e565b5b61152e8254611325565b611539828285611475565b600060209050601f83116001811461156c576000841561155a578287015190505b61156485826114e6565b8655506115cc565b601f19841661157a86611356565b60005b828110156115a25784890151825560018201915060208501945060208101905061157d565b868310156115bf57848901516115bb601f8916826114c8565b8355505b6001600288020188555050505b505050505050565b7f4e487b7100000000000000000000000000000000000000000000000000000000600052601160045260246000fd5b600061160e82610bc9565b91507fffffffffffffffffffffffffffffffffffffffffffffffffffffffffffffffff82036116405761163f6115d4565b5b600182019050919050565b600061165682610bc9565b915061166183610bc9565b9250828203905081811115611679576116786115d4565b5b92915050565b600081905092915050565b50565b600061169a60008361167f565b91506116a58261168a565b600082019050919050565b60006116bb8261168d565b9150819050919050565b60006116d082610bc9565b91506116db83610bc9565b92508282019050808211156116f3576116f26115d4565b5b92915050565b7f4e487b7100000000000000000000000000000000000000000000000000000000600052603260045260246000fdfea264697066735822122067bedc4f3e19dd4f1a4be3b4df719a8822e175f00be35444c3cfb1408dd3719364736f6c63430008130033",
  "linkReferences": {},
  "deployedLinkReferences": {}
}